:020000020000FC
:020000000CC131
:100200004162436445664768496A31323334350098
:100210006A6F616F20323032340001E20EBF0FEF9F
:100220000DBFE0E0F2E0A0E0B2E08FE0803021F02E
:1002300075917D938A95FACFE0E1F2E0A0E0B3E01A
:100240008AE0803021F075917D938A95FACF6627F8
:1002500001D0FFCFE0E0F3E01191103019F003D0AE
:100260001AD0FACF08950F932F935F93CF93DF9314
:10027000442700E0C02F02E0D02F5FE02991121741
:1002800011F441E002C05A95C9F7DF91CF915F9117
:100290002F910F9108950F937F938F939F930F92B8
:1002A000AF93BF93A0E0B4E0862F882359F09C91D0
:1002B000191729F411960C9003940C9215C01396FB
:1002C0008A95A9F7062F7727003021F0002E000C21
:1002D000000E01C00024A0E0B4E0A00DB71F1D93E4
:1002E00001E00D934C936395BF91AF910F909F9157
:0802F0008F917F910F91089599
:00000001FF
